{
  "abi": [
    {
      "inputs": [
        {
          "internalType": "contract IEntryPoint",
          "name": "entryPoint",
          "type": "address"
        }
      ],
      "stateMutability": "nonpayable",
      "type": "constructor"
    },
    {
      "inputs": [],
      "name": "accountImplementation",
      "outputs": [
        {
          "internalType": "contract OpenIDAccount",
          "name": "",
          "type": "address"
        }
      ],
      "stateMutability": "view",
      "type": "function"
    },
    {
      "inputs": [
        {
          "internalType": "uint256",
          "name": "salt",
          "type": "uint256"
        },
        {
          "internalType": "address",
          "name": "owner",
          "type": "address"
        },
        {
          "internalType": "bytes32",
          "name": "openid_key",
          "type": "bytes32"
        },
        {
          "internalType": "bytes32[]",
          "name": "audiences",
          "type": "bytes32[]"
        },
        {
          "internalType": "bytes32[]",
          "name": "key_ids",
          "type": "bytes32[]"
        },
        {
          "internalType": "bytes[]",
          "name": "keys",
          "type": "bytes[]"
        }
      ],
      "name": "createAccount",
      "outputs": [
        {
          "internalType": "contract OpenIDAccount",
          "name": "",
          "type": "address"
        }
      ],
      "stateMutability": "nonpayable",
      "type": "function"
    },
    {
      "inputs": [
        {
          "internalType": "uint256",
          "name": "salt",
          "type": "uint256"
        },
        {
          "internalType": "address",
          "name": "owner",
          "type": "address"
        },
        {
          "internalType": "bytes32",
          "name": "openid_key",
          "type": "bytes32"
        },
        {
          "internalType": "bytes32[]",
          "name": "audiences",
          "type": "bytes32[]"
        },
        {
          "internalType": "bytes32[]",
          "name": "key_ids",
          "type": "bytes32[]"
        },
        {
          "internalType": "bytes[]",
          "name": "keys",
          "type": "bytes[]"
        }
      ],
      "name": "getAddress",
      "outputs": [
        {
          "internalType": "address",
          "name": "",
          "type": "address"
        }
      ],
      "stateMutability": "view",
      "type": "function"
    }
  ],
  "bytecode": {
    "object": "0x60a060405234801561001057600080fd5b5060405161508e38038061508e83398101604081905261002f91610088565b8060405161003c9061007b565b6001600160a01b039091168152602001604051809103906000f080158015610068573d6000803e3d6000fd5b506001600160a01b0316608052506100b8565b61438980610d0583390190565b60006020828403121561009a57600080fd5b81516001600160a01b03811681146100b157600080fd5b9392505050565b608051610c266100df6000396000818160510152818160f301526101d30152610c266000f3fe60806040523480156200001157600080fd5b5060043610620000465760003560e01c806311464fbe146200004b5780631e378a3a146200008f5780632fa17bde14620000a6575b600080fd5b620000737f000000000000000000000000000000000000000000000000000000000000000081565b6040516001600160a01b03909116815260200160405180910390f35b62000073620000a0366004620004b4565b620000bd565b62000073620000b7366004620004b4565b620001a1565b600080620000d0888888888888620001a1565b90506001600160a01b0381163b8015620000ed5750905062000197565b8860001b7f000000000000000000000000000000000000000000000000000000000000000089898989896040516024016200012d95949392919062000609565b60408051601f198184030181529181526020820180516001600160e01b031663890825d960e01b179052516200016390620002cf565b62000170929190620006ae565b8190604051809103906000f590508015801562000191573d6000803e3d6000fd5b50925050505b9695505050505050565b6000620002848760001b60405180602001620001bd90620002cf565b6020820181038252601f19601f820116604052507f000000000000000000000000000000000000000000000000000000000000000089898989896040516024016200020d95949392919062000609565b60408051601f19818403018152918152602080830180516001600160e01b031663890825d960e01b17905290516200024893929101620006ae565b60408051601f1981840301815290829052620002689291602001620006dc565b604051602081830303815290604052805190602001206200028f565b979650505050505050565b60006200029e838330620002a5565b9392505050565b6000604051836040820152846020820152828152600b8101905060ff815360559020949350505050565b6104e1806200071083390190565b634e487b7160e01b600052604160045260246000fd5b604051601f8201601f1916810167ffffffffffffffff811182821017156200031f576200031f620002dd565b604052919050565b600067ffffffffffffffff821115620003445762000344620002dd565b5060051b60200190565b600082601f8301126200036057600080fd5b8135602062000379620003738362000327565b620002f3565b82815260059290921b840181019181810190868411156200039957600080fd5b8286015b84811015620003b657803583529183019183016200039d565b509695505050505050565b6000601f8381840112620003d457600080fd5b82356020620003e7620003738362000327565b82815260059290921b850181019181810190878411156200040757600080fd5b8287015b84811015620004a857803567ffffffffffffffff808211156200042e5760008081fd5b818a0191508a603f830112620004445760008081fd5b858201356040828211156200045d576200045d620002dd565b62000470828b01601f19168901620002f3565b92508183528c81838601011115620004885760008081fd5b81818501898501375060009082018701528452509183019183016200040b565b50979650505050505050565b60008060008060008060c08789031215620004ce57600080fd5b8635955060208701356001600160a01b0381168114620004ed57600080fd5b945060408701359350606087013567ffffffffffffffff808211156200051257600080fd5b620005208a838b016200034e565b945060808901359150808211156200053757600080fd5b620005458a838b016200034e565b935060a08901359150808211156200055c57600080fd5b506200056b89828a01620003c1565b9150509295509295509295565b600081518084526020808501945080840160005b83811015620005aa578151875295820195908201906001016200058c565b509495945050505050565b60005b83811015620005d2578181015183820152602001620005b8565b50506000910152565b60008151808452620005f5816020860160208601620005b5565b601f01601f19169290920160200192915050565b60018060a01b038616815260006020868184015260a060408401526200063360a084018762000578565b838103606085015262000647818762000578565b905083810360808501528085518083528383019150838160051b84010184880160005b838110156200069c57601f1986840301855262000689838351620005db565b948701949250908601906001016200066a565b50909c9b505050505050505050505050565b6001600160a01b0383168152604060208201819052600090620006d490830184620005db565b949350505050565b60008351620006f0818460208801620005b5565b83519083019062000706818360208801620005b5565b0194935050505056fe60806040526040516104e13803806104e1833981016040819052610022916102de565b61002e82826000610035565b50506103fb565b61003e83610061565b60008251118061004b5750805b1561005c5761005a83836100a1565b505b505050565b61006a816100cd565b6040516001600160a01b038216907fbc7cd75a20ee27fd9adebab32041f755214dbc6bffa90cc0225b39da2e5c2d3b90600090a250565b60606100c683836040518060600160405280602781526020016104ba60279139610180565b9392505050565b6001600160a01b0381163b61013f5760405162461bcd60e51b815260206004820152602d60248201527f455243313936373a206e657720696d706c656d656e746174696f6e206973206e60448201526c1bdd08184818dbdb9d1c9858dd609a1b60648201526084015b60405180910390fd5b7f360894a13ba1a3210667c828492db98dca3e2076cc3735a920a3ca505d382bbc80546001600160a01b0319166001600160a01b0392909216919091179055565b6060600080856001600160a01b03168560405161019d91906103ac565b600060405180830381855af49150503d80600081146101d8576040519150601f19603f3d011682016040523d82523d6000602084013e6101dd565b606091505b5090925090506101ef868383876101f9565b9695505050505050565b60608315610268578251600003610261576001600160a01b0385163b6102615760405162461bcd60e51b815260206004820152601d60248201527f416464726573733a2063616c6c20746f206e6f6e2d636f6e74726163740000006044820152606401610136565b5081610272565b610272838361027a565b949350505050565b81511561028a5781518083602001fd5b8060405162461bcd60e51b815260040161013691906103c8565b634e487b7160e01b600052604160045260246000fd5b60005b838110156102d55781810151838201526020016102bd565b50506000910152565b600080604083850312156102f157600080fd5b82516001600160a01b038116811461030857600080fd5b60208401519092506001600160401b038082111561032557600080fd5b818501915085601f83011261033957600080fd5b81518181111561034b5761034b6102a4565b604051601f8201601f19908116603f01168101908382118183101715610373576103736102a4565b8160405282815288602084870101111561038c57600080fd5b61039d8360208301602088016102ba565b80955050505050509250929050565b600082516103be8184602087016102ba565b9190910192915050565b60208152600082518060208401526103e78160408501602087016102ba565b601f01601f19169190910160400192915050565b60b1806104096000396000f3fe608060405236601057600e6013565b005b600e5b601f601b6021565b6058565b565b600060537f360894a13ba1a3210667c828492db98dca3e2076cc3735a920a3ca505d382bbc546001600160a01b031690565b905090565b3660008037600080366000845af43d6000803e8080156076573d6000f35b3d6000fdfea2646970667358221220c0742f940ded5e4304582d45ce03a4b2b58c15608b47893cca3070a20e65472d64736f6c63430008140033416464726573733a206c6f772d6c6576656c2064656c65676174652063616c6c206661696c6564a2646970667358221220243494f24306b985d21df197d86e971807df9dbf21f213b6d64dab7d395521b864736f6c6343000814003360c0604052306080523480156200001557600080fd5b506040516200438938038062004389833981016040819052620000389162000123565b6001600160a01b03811660a052806200005062000062565b506200005b62000062565b5062000155565b600054610100900460ff1615620000cf5760405162461bcd60e51b815260206004820152602760248201527f496e697469616c697a61626c653a20636f6e747261637420697320696e697469604482015266616c697a696e6760c81b606482015260840160405180910390fd5b60005460ff9081161462000121576000805460ff191660ff9081179091556040519081527f7f26b83ff96e1f2b6a682f133852f6798a09c465da95921460cefb38474024989060200160405180910390a15b565b6000602082840312156200013657600080fd5b81516001600160a01b03811681146200014e57600080fd5b9392505050565b60805160a0516141c8620001c1600039600081816104b3015281816109e501528181610a660152818161141a0152818161157d01528181611733015261219a01526000818161083e0152818161087e01528181610af701528181610b370152610bca01526141c86000f3fe6080604052600436106101db5760003560e01c8063805e423e11610102578063c399ec8811610095578063f22b68db11610064578063f22b68db146105e7578063f23a6e6114610607578063f80f893714610634578063f8a1d6a11461065457600080fd5b8063c399ec8814610553578063c4d66de814610568578063d087d28814610588578063ddb3d21a1461059d57600080fd5b8063b0d691fe116100d1578063b0d691fe146104a4578063b61d27f6146104d7578063b7854534146104f7578063bc197c811461052457600080fd5b8063805e423e146103e657806385caadf014610416578063890825d9146104465780638da5cb5b1461046657600080fd5b80633d0e41781161017a5780634f1ef286116101495780634f1ef2861461037e57806352d1902d146103915780635acc7494146103a6578063710a5b3c146103c657600080fd5b80633d0e4178146103165780633ed83b64146103365780634a58db19146103565780634d44560d1461035e57600080fd5b80631869f6d8116101b65780631869f6d81461028857806318dfb3c7146102a85780633659cfe6146102c85780633a871cdd146102e857600080fd5b806223de29146101e757806301ffc9a71461020e578063150b7a021461024357600080fd5b366101e257005b600080fd5b3480156101f357600080fd5b5061020c61020236600461314d565b5050505050505050565b005b34801561021a57600080fd5b5061022e6102293660046131fd565b610684565b60405190151581526020015b60405180910390f35b34801561024f57600080fd5b5061026f61025e366004613227565b630a85bd0160e11b95945050505050565b6040516001600160e01b0319909116815260200161023a565b34801561029457600080fd5b5061020c6102a3366004613299565b6106d6565b3480156102b457600080fd5b5061020c6102c33660046132f6565b610734565b3480156102d457600080fd5b5061020c6102e3366004613361565b610834565b3480156102f457600080fd5b5061030861030336600461337e565b610913565b60405190815260200161023a565b34801561032257600080fd5b5061020c610331366004613299565b610931565b34801561034257600080fd5b5061020c6103513660046133d1565b610981565b61020c6109e3565b34801561036a57600080fd5b5061020c61037936600461341c565b610a5c565b61020c61038c3660046134fd565b610aed565b34801561039d57600080fd5b50610308610bbd565b3480156103b257600080fd5b5061020c6103c1366004613299565b610c70565b3480156103d257600080fd5b5061020c6103e13660046132f6565b610cc0565b3480156103f257600080fd5b5061040661040136600461354c565b610dea565b60405161023a94939291906135b6565b34801561042257600080fd5b5061022e610431366004613299565b60036020526000908152604090205460ff1681565b34801561045257600080fd5b5061020c610461366004613666565b611015565b34801561047257600080fd5b5060005461048c906201000090046001600160a01b031681565b6040516001600160a01b03909116815260200161023a565b3480156104b057600080fd5b507f000000000000000000000000000000000000000000000000000000000000000061048c565b3480156104e357600080fd5b5061020c6104f236600461377e565b611309565b34801561050357600080fd5b50610517610512366004613299565b611358565b60405161023a919061381d565b34801561053057600080fd5b5061026f61053f366004613830565b63bc197c8160e01b98975050505050505050565b34801561055f57600080fd5b506103086113fa565b34801561057457600080fd5b5061020c610583366004613361565b61148b565b34801561059457600080fd5b50610308611556565b3480156105a957600080fd5b506105bd6105b836600461354c565b6115ac565b6040805195151586526020860194909452928401919091526060830152608082015260a00161023a565b3480156105f357600080fd5b5061020c610602366004613299565b61162d565b34801561061357600080fd5b5061026f6106223660046138cd565b63f23a6e6160e01b9695505050505050565b34801561064057600080fd5b5061020c61064f366004613299565b61167c565b34801561066057600080fd5b5061022e61066f366004613299565b60009081526002602052604090205460ff1690565b60006001600160e01b03198216630a85bd0160e11b14806106b557506001600160e01b03198216630271189760e51b145b806106d057506001600160e01b031982166301ffc9a760e01b145b92915050565b6106de6116cf565b60008181526003602052604090819020805460ff19166001179055517ff5007fbb4882cd4ed997c7686f180c46230358c664b2639707002ee115e8aef6906107299083815260200190565b60405180910390a150565b61073c611728565b8281146107865760405162461bcd60e51b815260206004820152601360248201527277726f6e67206172726179206c656e6774687360681b60448201526064015b60405180910390fd5b60005b8381101561082d5761081b8585838181106107a6576107a6613948565b90506020020160208101906107bb9190613361565b60008585858181106107cf576107cf613948565b90506020028101906107e1919061395e565b8080601f0160208091040260200160405190810160405280939291908181526020018383808284376000920191909152506117bb92505050565b80610825816139ba565b915050610789565b5050505050565b6001600160a01b037f000000000000000000000000000000000000000000000000000000000000000016300361087c5760405162461bcd60e51b815260040161077d906139d3565b7f00000000000000000000000000000000000000000000000000000000000000006001600160a01b03166108c560008051602061414c833981519152546001600160a01b031690565b6001600160a01b0316146108eb5760405162461bcd60e51b815260040161077d90613a1f565b6108f48161182b565b6040805160008082526020820190925261091091839190611833565b50565b600061091f84846119a3565b905061092a82611bd3565b9392505050565b6109396116cf565b60008181526002602052604090819020805460ff19169055517f5a5c485156cdc63d427984d2c9b81bd8ae5d817ded95016818c43120c93fbd6d906107299083815260200190565b6109896116cf565b60008381526001602052604090206109a2828483613aeb565b507f09c7228183e89663fa47ccbf317d3ac5e228a62848b5c29017eb05cb1a7224bc8383836040516109d693929190613baa565b60405180910390a1505050565b7f000000000000000000000000000000000000000000000000000000000000000060405163b760faf960e01b81523060048201526001600160a01b03919091169063b760faf99034906024016000604051808303818588803b158015610a4857600080fd5b505af115801561082d573d6000803e3d6000fd5b610a646116cf565b7f000000000000000000000000000000000000000000000000000000000000000060405163040b850f60e31b81526001600160a01b03848116600483015260248201849052919091169063205c287890604401600060405180830381600087803b158015610ad157600080fd5b505af1158015610ae5573d6000803e3d6000fd5b505050505050565b6001600160a01b037f0000000000000000000000000000000000000000000000000000000000000000163003610b355760405162461bcd60e51b815260040161077d906139d3565b7f00000000000000000000000000000000000000000000000000000000000000006001600160a01b0316610b7e60008051602061414c833981519152546001600160a01b031690565b6001600160a01b031614610ba45760405162461bcd60e51b815260040161077d90613a1f565b610bad8261182b565b610bb982826001611833565b5050565b6000306001600160a01b037f00000000000000000000000000000000000000000000000000000000000000001614610c5d5760405162461bcd60e51b815260206004820152603860248201527f555550535570677261646561626c653a206d757374206e6f742062652063616c60448201527f6c6564207468726f7567682064656c656761746563616c6c0000000000000000606482015260840161077d565b5060008051602061414c83398151915290565b610c786116cf565b60008181526003602052604090819020805460ff19169055517f5bdbaec02b7d568df22124b296e149bebff907154ee3eccd8120b472c72ee5bb906107299083815260200190565b610cc86116cf565b82818114610d2b5760405162461bcd60e51b815260206004820152602a60248201527f62617463685570646174654f70656e49445075626c69634b65793a20494e56416044820152690989288be988a9c8ea8960b31b606482015260840161077d565b60005b81811015610ae5576000868683818110610d4a57610d4a613948565b905060200201359050366000868685818110610d6857610d68613948565b9050602002810190610d7a919061395e565b60008581526001602052604090209193509150610d98828483613aeb565b507f09c7228183e89663fa47ccbf317d3ac5e228a62848b5c29017eb05cb1a7224bc838383604051610dcc93929190613baa565b60405180910390a15050508080610de2906139ba565b915050610d2e565b60008036818181818180610e00600b6004613bcd565b6004810191508b013560e01c8b828c610e198483613be4565b92610e2693929190613bf7565b9096509450610e3b63ffffffff821683613be4565b6004810192508c013560e01c90508b828c610e568483613be4565b92610e6393929190613bf7565b9098509650610e7863ffffffff821683613be4565b6004810192508c013560e01c90508b828c610e938483613be4565b92610ea093929190613bf7565b9350935050506060610eb68b8b87878b8b611c20565b80925081995050506110056002610f0287878080601f016020809104026020016040519081016040528093929190818152602001838380828437600092019190915250611dee92505050565b610f418a8a8080601f016020809104026020016040519081016040528093929190818152602001838380828437600092019190915250611dee92505050565b604051602001610f52929190613c21565b60408051601f1981840301815290829052610f6c91613c5d565b602060405180830381855afa158015610f89573d6000803e3d6000fd5b5050506040513d601f19601f82011682018060405250810190610fac9190613c79565b826040518060400160405280600381526020016201000160e81b81525086868080601f01602080910402602001604051908101604052809392919081815260200183838082843760009201919091525061212292505050565b9850505050505092959194509250565b600054610100900460ff16158080156110355750600054600160ff909116105b8061104f5750303b15801561104f575060005460ff166001145b61106b5760405162461bcd60e51b815260040161077d90613c92565b6000805460ff19166001179055801561108e576000805461ff0019166101001790555b81518351146110cd5760405162461bcd60e51b815260206004820152600b60248201526a696e76616c6964206b657960a81b604482015260640161077d565b6110d68661148b565b60008581526003602052604090819020805460ff19166001179055517ff5007fbb4882cd4ed997c7686f180c46230358c664b2639707002ee115e8aef6906111219087815260200190565b60405180910390a160005b84518110156111de5760016002600087848151811061114d5761114d613948565b6020026020010151815260200190815260200160002060006101000a81548160ff0219169083151502179055507fac3cfe69fe75d1ba90e2d1259e5fc2aded0b228ca8b387e0985454d2a58d5ef48582815181106111ad576111ad613948565b60200260200101516040516111c491815260200190565b60405180910390a1806111d6816139ba565b91505061112c565b5060005b83518110156112bb578281815181106111fd576111fd613948565b60200260200101516001600086848151811061121b5761121b613948565b60200260200101518152602001908152602001600020908161123d9190613ce0565b507f09c7228183e89663fa47ccbf317d3ac5e228a62848b5c29017eb05cb1a7224bc84828151811061127157611271613948565b602002602001015184838151811061128b5761128b613948565b60200260200101516040516112a1929190613d9f565b60405180910390a1806112b3816139ba565b9150506111e2565b508015610ae5576000805461ff0019169055604051600181527f7f26b83ff96e1f2b6a682f133852f6798a09c465da95921460cefb38474024989060200160405180910390a1505050505050565b611311611728565b611352848484848080601f0160208091040260200160405190810160405280939291908181526020018383808284376000920191909152506117bb92505050565b50505050565b600081815260016020526040902080546060919061137590613a6b565b80601f01602080910402602001604051908101604052809291908181526020018280546113a190613a6b565b80156113ee5780601f106113c3576101008083540402835291602001916113ee565b820191906000526020600020905b8154815290600101906020018083116113d157829003601f168201915b50505050509050919050565b6040516370a0823160e01b81523060048201526000906001600160a01b037f000000000000000000000000000000000000000000000000000000000000000016906370a08231906024015b602060405180830381865afa158015611462573d6000803e3d6000fd5b505050506040513d601f19601f820116820180604052508101906114869190613c79565b905090565b600054610100900460ff16158080156114ab5750600054600160ff909116105b806114c55750303b1580156114c5575060005460ff166001145b6114e15760405162461bcd60e51b815260040161077d90613c92565b6000805460ff191660011790558015611504576000805461ff0019166101001790555b61150d82612167565b8015610bb9576000805461ff0019169055604051600181527f7f26b83ff96e1f2b6a682f133852f6798a09c465da95921460cefb38474024989060200160405180910390a15050565b604051631aab3f0d60e11b8152306004820152600060248201819052906001600160a01b037f000000000000000000000000000000000000000000000000000000000000000016906335567e1a90604401611445565b60008060008060003660006115c18989610dea565b929950909650925090506115d7898984846121e3565b95506115e5898984846123d6565b6040516115f3929190613db8565b60405180910390209250611609898984846124b9565b604051611617929190613db8565b6040518091039020935050509295509295909350565b6116356116cf565b600081815260016020526040812061164c916130a2565b6040518181527f2dcad5593eade66ba317c839f2c7cd4b40bf9348055df767870cc43eb955e99f90602001610729565b6116846116cf565b60008181526002602052604090819020805460ff19166001179055517fac3cfe69fe75d1ba90e2d1259e5fc2aded0b228ca8b387e0985454d2a58d5ef4906107299083815260200190565b6000546201000090046001600160a01b03163314806116ed57503330145b6117265760405162461bcd60e51b815260206004820152600a60248201526937b7363c9037bbb732b960b11b604482015260640161077d565b565b336001600160a01b037f000000000000000000000000000000000000000000000000000000000000000016148061176f57506000546201000090046001600160a01b031633145b6117265760405162461bcd60e51b815260206004820181905260248201527f6163636f756e743a206e6f74204f776e6572206f7220456e747279506f696e74604482015260640161077d565b600080846001600160a01b031684846040516117d79190613c5d565b60006040518083038185875af1925050503d8060008114611814576040519150601f19603f3d011682016040523d82523d6000602084013e611819565b606091505b50915091508161082d57805160208201fd5b6109106116cf565b7f4910fdfa16fed3260ed0e7147f7cc6da11a60208b5b9406d12a635614ffd91435460ff161561186b5761186683612637565b505050565b826001600160a01b03166352d1902d6040518163ffffffff1660e01b8152600401602060405180830381865afa9250505080156118c5575060408051601f3d908101601f191682019092526118c291810190613c79565b60015b6119285760405162461bcd60e51b815260206004820152602e60248201527f45524331393637557067726164653a206e657720696d706c656d656e7461746960448201526d6f6e206973206e6f74205555505360901b606482015260840161077d565b60008051602061414c83398151915281146119975760405162461bcd60e51b815260206004820152602960248201527f45524331393637557067726164653a20756e737570706f727465642070726f786044820152681a58589b195555525160ba1b606482015260840161077d565b506118668383836126d3565b6000807fddb3d21a8359d4a184a1b4ea908575495d6e7717b8e70cbdd886a5882020358a6119d561014086018661395e565b6040516024016119e6929190613dc8565b604051602081830303815290604052906001600160e01b0319166020820180516001600160e01b0383818316178352505050509050600080306001600160a01b031683604051611a369190613c5d565b6000604051808303816000865af19150503d8060008114611a73576040519150601f19603f3d011682016040523d82523d6000602084013e611a78565b606091505b509150915081611a8757600080fd5b60008060008084806020019051810190611aa19190613ddc565b929b509296509450909250905083611aeb5760405162461bcd60e51b815260206004820152600d60248201526c24a72b20a624a22faa27a5a2a760991b604482015260640161077d565b80611af78a60206126f8565b8051906020012014611b405760405162461bcd60e51b81526020600482015260126024820152710929cac82989288be9c9e9c868abe9082a6960731b604482015260640161077d565b600360008484604051602001611b60929190918252602082015260400190565b60408051601f198184030181529181528151602092830120835290820192909252016000205460ff16611bc35760405162461bcd60e51b815260206004820152600b60248201526a24a72b20a624a22fa9aaa160a91b604482015260640161077d565b5060009998505050505050505050565b801561091057604051600090339060001990849084818181858888f193505050503d806000811461082d576040519150601f19603f3d011682016040523d82523d6000602084013e61082d565b60006060366000611c338a8a8888612893565b915091508181604051611c47929190613db8565b60405180910390209350366000611c608c8c8a8a6129eb565b91509150611ca984848484604051602001611c7e9493929190613e2a565b6040516020818303038152906040528051906020012060009081526002602052604090205460ff1690565b611d015760405162461bcd60e51b8152602060048201526024808201527f5f6765745075626c69634b6579416e64497373486173683a20494e56414c494460448201526317d0555160e21b606482015260840161077d565b6000611d0f8d8d8d8d612b44565b8080601f01602080910402602001604051908101604052809392919081815260200183838082843760009201919091525050604051929350611d7a92611d5f925088915087908590602001613e4c565b60405160208183030381529060405280519060200120611358565b95506000865111611dde5760405162461bcd60e51b815260206004820152602860248201527f5f6765745075626c69634b6579416e64497373486173683a20494e56414c49446044820152675f5055425f4b455960c01b606482015260840161077d565b5050505050965096945050505050565b60606000829050600060038251611e059190613e89565b905060006003611e158382613e9d565b611e1f9190613e89565b600384516002611e2f9190613be4565b611e399190613eb0565b611e44906004613bcd565b611e4e9190613e9d565b90506000816001600160401b03811115611e6a57611e6a613448565b6040519080825280601f01601f191660200182016040528015611e94576020820181803683370190505b5090506000805b8551611ea8836003613be4565b11611ff257611f17868381518110611ec257611ec2613948565b016020015160f81c87611ed6856001613be4565b81518110611ee657611ee6613948565b016020015160f81c88611efa866002613be4565b81518110611f0a57611f0a613948565b016020015160f81c612c9d565b868581518110611f2957611f29613948565b0160200187611f39876001613be4565b81518110611f4957611f49613948565b0160200188611f59886002613be4565b81518110611f6957611f69613948565b0160200189611f79896003613be4565b81518110611f8957611f89613948565b6001600160f81b0319861660001a9101602001536001600160f81b0319851660001a90536001600160f81b0319851660001a90536001600160f81b0319851660001a905350505050600481611fde9190613be4565b9050611feb600383613be4565b9150611e9b565b8415612116576000868688516120089190613e9d565b8151811061201857612018613948565b016020015160f81c90506000600287900361205757876001895161203c9190613e9d565b8151811061204c5761204c613948565b016020015160f81c90505b600080600061206e8560ff168560ff166000612c9d565b509250925092508288878151811061208857612088613948565b60200101906001600160f81b031916908160001a90535081886120ac886001613be4565b815181106120bc576120bc613948565b60200101906001600160f81b031916908160001a905350896002036121105780886120e8886002613be4565b815181106120f8576120f8613948565b60200101906001600160f81b031916908160001a9053505b50505050505b50909695505050505050565b6000806060612132848688612db8565b909250905081801561215a5750612157602082516121509190613e9d565b8290612e4e565b87145b925050505b949350505050565b6000805462010000600160b01b031916620100006001600160a01b038481168202929092178084556040519190048216927f0000000000000000000000000000000000000000000000000000000000000000909216917f47e55c76e7a6f1fd8996a1da8008c1ea29699cca35e7bcd057f2dec313b6e5de91a350565b600036818061220960095b6121f9906004613bcd565b808a013560e01c91600490910190565b509050651134b0ba111d60d11b8686612223600685613ec4565b6122399263ffffffff8681169392169190613bf7565b61224291613ee8565b1461228f5760405162461bcd60e51b815260206004820152601f60248201527f5f76616c696461746554696d657374616d703a20494e56414c49445f49415400604482015260640161077d565b8563ffffffff8216866122a384600a613f06565b63ffffffff16926122b693929190613bf7565b90935091503690506000806122e06122d0600a6004613bcd565b808c013560e01c91600490910190565b509050651132bc38111d60d11b88886122fa600685613ec4565b6123109263ffffffff8681169392169190613bf7565b61231991613ee8565b146123665760405162461bcd60e51b815260206004820152601f60248201527f5f76616c696461746554696d657374616d703a20494e56414c49445f45585000604482015260640161077d565b8763ffffffff82168861237a84600a613f06565b63ffffffff169261238d93929190613bf7565b925092505061239c8484612e8e565b65ffffffffffff168517945060306123b48383612e8e565b65ffffffffffff16901b65ffffffffffff168517945050505050949350505050565b366000806123fb60085b6123eb906004613bcd565b8089013560e01c91600490910190565b50905068113737b731b2911d1160b91b8585612418600985613ec4565b61242e9263ffffffff8681169392169190613bf7565b61243791613ee8565b146124845760405162461bcd60e51b815260206004820152601860248201527f5f6765744e6f6e63653a20494e56414c49445f4e4f4e43450000000000000000604482015260640161077d565b8463ffffffff821685612498846042613f06565b63ffffffff16926124ab93929190613bf7565b925092505094509492505050565b366000806124c760046123e0565b509050661139bab1111d1160c91b85856124e2600785613ec4565b6124f89263ffffffff8681169392169190613bf7565b61250191613f23565b6001600160c81b031916146125585760405162461bcd60e51b815260206004820152601960248201527f5f6765745375623a20494e56414c49445f5355425f4c45465400000000000000604482015260640161077d565b600061256460056121ee565b50905060008663ffffffff83168761257d856002613f06565b63ffffffff169261259093929190613bf7565b61259991613f53565b90506001600160f01b0319811661088b60f21b14806125c657506001600160f01b0319811661227d60f01b145b6126125760405162461bcd60e51b815260206004820152601a60248201527f5f6765745375623a20494e56414c49445f5355425f5249474854000000000000604482015260640161077d565b61262763ffffffff838116908516888a613bf7565b9450945050505094509492505050565b6001600160a01b0381163b6126a45760405162461bcd60e51b815260206004820152602d60248201527f455243313936373a206e657720696d706c656d656e746174696f6e206973206e60448201526c1bdd08184818dbdb9d1c9858dd609a1b606482015260840161077d565b60008051602061414c83398151915280546001600160a01b0319166001600160a01b0392909216919091179055565b6126dc83612f2c565b6000825111806126e95750805b15611866576113528383612f6c565b60606000612707836002613bcd565b612712906002613be4565b6001600160401b0381111561272957612729613448565b6040519080825280601f01601f191660200182016040528015612753576020820181803683370190505b509050600360fc1b8160008151811061276e5761276e613948565b60200101906001600160f81b031916908160001a905350600f60fb1b8160018151811061279d5761279d613948565b60200101906001600160f81b031916908160001a90535060006127c1846002613bcd565b6127cc906001613be4565b90505b6001811115612844576f181899199a1a9b1b9c1cb0b131b232b360811b85600f166010811061280057612800613948565b1a60f81b82828151811061281657612816613948565b60200101906001600160f81b031916908160001a90535060049490941c9361283d81613f81565b90506127cf565b50831561092a5760405162461bcd60e51b815260206004820181905260248201527f537472696e67733a20686578206c656e67746820696e73756666696369656e74604482015260640161077d565b366000806128a0816123e0565b509050661134b9b9911d1160c91b85856128bb600785613ec4565b6128d19263ffffffff8681169392169190613bf7565b6128da91613f23565b6001600160c81b031916146129315760405162461bcd60e51b815260206004820152601960248201527f5f6765744973733a20494e56414c49445f4953535f4c45465400000000000000604482015260640161077d565b600061293d60016121ee565b50905060008663ffffffff831687612956856002613f06565b63ffffffff169261296993929190613bf7565b61297291613f53565b90506001600160f01b0319811661088b60f21b148061299f57506001600160f01b0319811661227d60f01b145b6126125760405162461bcd60e51b815260206004820152601a60248201527f5f6765744973733a20494e56414c49445f4953535f5249474854000000000000604482015260640161077d565b366000806129f960066123e0565b509050661130bab2111d1160c91b8585612a14600785613ec4565b612a2a9263ffffffff8681169392169190613bf7565b612a3391613f23565b6001600160c81b03191614612a8a5760405162461bcd60e51b815260206004820152601960248201527f5f6765744175643a20494e56414c49445f4155445f4c45465400000000000000604482015260640161077d565b6000612a9660076121ee565b50905060008663ffffffff831687612aaf856002613f06565b63ffffffff1692612ac293929190613bf7565b612acb91613f53565b90506001600160f01b0319811661088b60f21b1480612af857506001600160f01b0319811661227d60f01b145b6126125760405162461bcd60e51b815260206004820152601a60248201527f5f6765744175643a20494e56414c49445f4155445f5249474854000000000000604482015260640161077d565b36600080612b5260026123e0565b509050661135b4b2111d1160c91b8585612b6d600785613ec4565b612b839263ffffffff8681169392169190613bf7565b612b8c91613f23565b6001600160c81b03191614612be35760405162461bcd60e51b815260206004820152601960248201527f5f6765744b69643a20494e56414c49445f4b49445f4c45465400000000000000604482015260640161077d565b6000612bef60036121ee565b50905060008663ffffffff831687612c08856002613f06565b63ffffffff1692612c1b93929190613bf7565b612c2491613f53565b90506001600160f01b0319811661088b60f21b1480612c5157506001600160f01b0319811661227d60f01b145b6126125760405162461bcd60e51b815260206004820152601a60248201527f5f6765744b69643a20494e56414c49445f4b49445f5249474854000000000000604482015260640161077d565b60408051606081018252818152600091829182918291601089901b600889901b17871791603f601284901c811692600c85901c821692600686901c8316928616919061410c60208301398481518110612cf857612cf8613948565b602001015160f81c60f81b985060405180606001604052806040815260200161410c604091398381518110612d2f57612d2f613948565b602001015160f81c60f81b975060405180606001604052806040815260200161410c604091398281518110612d6657612d66613948565b602001015160f81c60f81b965060405180606001604052806040815260200161410c604091398181518110612d9d57612d9d613948565b602001015160f81c60f81b9550505050505093509350935093565b600060606000855185518551888888604051602001612ddc96959493929190613f98565b604051602081830303815290604052905083516001600160401b03811115612e0657612e06613448565b6040519080825280601f01601f191660200182016040528015612e30576020820181803683370190505b50915083516020830182516020840160055afa925050935093915050565b600080612e5c836020613be4565b90508084511015612e8457838360405163de59ba1360e01b815260040161077d929190613ff9565b9092015192915050565b600080805b83811015612f24576000612ea78286613e9d565b90506000868684818110612ebd57612ebd613948565b6001600160f81b031992013591821692505060f81c6000612edf603083613e9d565b9050612eec600185613e9d565b612ef790600a6140ff565b612f019082613bcd565b612f0b9087613be4565b9550505050508080612f1c906139ba565b915050612e93565b509392505050565b612f3581612637565b6040516001600160a01b038216907fbc7cd75a20ee27fd9adebab32041f755214dbc6bffa90cc0225b39da2e5c2d3b90600090a250565b606061092a838360405180606001604052806027815260200161416c602791396060600080856001600160a01b031685604051612fa99190613c5d565b600060405180830381855af49150503d8060008114612fe4576040519150601f19603f3d011682016040523d82523d6000602084013e612fe9565b606091505b5091509150612ffa86838387613004565b9695505050505050565b6060831561307357825160000361306c576001600160a01b0385163b61306c5760405162461bcd60e51b815260206004820152601d60248201527f416464726573733a2063616c6c20746f206e6f6e2d636f6e7472616374000000604482015260640161077d565b508161215f565b61215f83838151156130885781518083602001fd5b8060405162461bcd60e51b815260040161077d919061381d565b5080546130ae90613a6b565b6000825580601f106130be575050565b601f01602090049060005260206000209081019061091091905b808211156130ec57600081556001016130d8565b5090565b6001600160a01b038116811461091057600080fd5b60008083601f84011261311757600080fd5b5081356001600160401b0381111561312e57600080fd5b60208301915083602082850101111561314657600080fd5b9250929050565b60008060008060008060008060c0898b03121561316957600080fd5b8835613174816130f0565b97506020890135613184816130f0565b96506040890135613194816130f0565b95506060890135945060808901356001600160401b03808211156131b757600080fd5b6131c38c838d01613105565b909650945060a08b01359150808211156131dc57600080fd5b506131e98b828c01613105565b999c989b5096995094979396929594505050565b60006020828403121561320f57600080fd5b81356001600160e01b03198116811461092a57600080fd5b60008060008060006080868803121561323f57600080fd5b853561324a816130f0565b9450602086013561325a816130f0565b93506040860135925060608601356001600160401b0381111561327c57600080fd5b61328888828901613105565b969995985093965092949392505050565b6000602082840312156132ab57600080fd5b5035919050565b60008083601f8401126132c457600080fd5b5081356001600160401b038111156132db57600080fd5b6020830191508360208260051b850101111561314657600080fd5b6000806000806040858703121561330c57600080fd5b84356001600160401b038082111561332357600080fd5b61332f888389016132b2565b9096509450602087013591508082111561334857600080fd5b50613355878288016132b2565b95989497509550505050565b60006020828403121561337357600080fd5b813561092a816130f0565b60008060006060848603121561339357600080fd5b83356001600160401b038111156133a957600080fd5b840161016081870312156133bc57600080fd5b95602085013595506040909401359392505050565b6000806000604084860312156133e657600080fd5b8335925060208401356001600160401b0381111561340357600080fd5b61340f86828701613105565b9497909650939450505050565b6000806040838503121561342f57600080fd5b823561343a816130f0565b946020939093013593505050565b634e487b7160e01b600052604160045260246000fd5b604051601f8201601f191681016001600160401b038111828210171561348657613486613448565b604052919050565b600082601f83011261349f57600080fd5b81356001600160401b038111156134b8576134b8613448565b6134cb601f8201601f191660200161345e565b8181528460208386010111156134e057600080fd5b816020850160208301376000918101602001919091529392505050565b6000806040838503121561351057600080fd5b823561351b816130f0565b915060208301356001600160401b0381111561353657600080fd5b6135428582860161348e565b9150509250929050565b6000806020838503121561355f57600080fd5b82356001600160401b0381111561357557600080fd5b61358185828601613105565b90969095509350505050565b81835281816020850137506000828201602090810191909152601f909101601f19169091010190565b8415158152836020820152606060408201526000612ffa60608301848661358d565b60006001600160401b038211156135f1576135f1613448565b5060051b60200190565b600082601f83011261360c57600080fd5b8135602061362161361c836135d8565b61345e565b82815260059290921b8401810191818101908684111561364057600080fd5b8286015b8481101561365b5780358352918301918301613644565b509695505050505050565b600080600080600060a0868803121561367e57600080fd5b8535613689816130f0565b9450602086810135945060408701356001600160401b03808211156136ad57600080fd5b6136b98a838b016135fb565b955060608901359150808211156136cf57600080fd5b6136db8a838b016135fb565b945060808901359150808211156136f157600080fd5b818901915089601f83011261370557600080fd5b813561371361361c826135d8565b81815260059190911b8301840190848101908c83111561373257600080fd5b8585015b8381101561376a5780358581111561374e5760008081fd5b61375c8f89838a010161348e565b845250918601918601613736565b508096505050505050509295509295909350565b6000806000806060858703121561379457600080fd5b843561379f816130f0565b93506020850135925060408501356001600160401b038111156137c157600080fd5b61335587828801613105565b60005b838110156137e85781810151838201526020016137d0565b50506000910152565b600081518084526138098160208601602086016137cd565b601f01601f19169290920160200192915050565b60208152600061092a60208301846137f1565b60008060008060008060008060a0898b03121561384c57600080fd5b8835613857816130f0565b97506020890135613867816130f0565b965060408901356001600160401b038082111561388357600080fd5b61388f8c838d016132b2565b909850965060608b01359150808211156138a857600080fd5b6138b48c838d016132b2565b909650945060808b01359150808211156131dc57600080fd5b60008060008060008060a087890312156138e657600080fd5b86356138f1816130f0565b95506020870135613901816130f0565b9450604087013593506060870135925060808701356001600160401b0381111561392a57600080fd5b61393689828a01613105565b979a9699509497509295939492505050565b634e487b7160e01b600052603260045260246000fd5b6000808335601e1984360301811261397557600080fd5b8301803591506001600160401b0382111561398f57600080fd5b60200191503681900382131561314657600080fd5b634e487b7160e01b600052601160045260246000fd5b6000600182016139cc576139cc6139a4565b5060010190565b6020808252602c908201527f46756e6374696f6e206d7573742062652063616c6c6564207468726f7567682060408201526b19195b1959d85d1958d85b1b60a21b606082015260800190565b6020808252602c908201527f46756e6374696f6e206d7573742062652063616c6c6564207468726f7567682060408201526b6163746976652070726f787960a01b606082015260800190565b600181811c90821680613a7f57607f821691505b602082108103613a9f57634e487b7160e01b600052602260045260246000fd5b50919050565b601f82111561186657600081815260208120601f850160051c81016020861015613acc5750805b601f850160051c820191505b81811015610ae557828155600101613ad8565b6001600160401b03831115613b0257613b02613448565b613b1683613b108354613a6b565b83613aa5565b6000601f841160018114613b4a5760008515613b325750838201355b600019600387901b1c1916600186901b17835561082d565b600083815260209020601f19861690835b82811015613b7b5786850135825560209485019460019092019101613b5b565b5086821015613b985760001960f88860031b161c19848701351681555b505060018560011b0183555050505050565b838152604060208201526000613bc460408301848661358d565b95945050505050565b80820281158282048414176106d0576106d06139a4565b808201808211156106d0576106d06139a4565b60008085851115613c0757600080fd5b83861115613c1457600080fd5b5050820193919092039150565b60008351613c338184602088016137cd565b601760f91b9083019081528351613c518160018401602088016137cd565b01600101949350505050565b60008251613c6f8184602087016137cd565b9190910192915050565b600060208284031215613c8b57600080fd5b5051919050565b6020808252602e908201527f496e697469616c697a61626c653a20636f6e747261637420697320616c72656160408201526d191e481a5b9a5d1a585b1a5e995960921b606082015260800190565b81516001600160401b03811115613cf957613cf9613448565b613d0d81613d078454613a6b565b84613aa5565b602080601f831160018114613d425760008415613d2a5750858301515b600019600386901b1c1916600185901b178555610ae5565b600085815260208120601f198616915b82811015613d7157888601518255948401946001909101908401613d52565b5085821015613d8f5787850151600019600388901b60f8161c191681555b5050505050600190811b01905550565b82815260406020820152600061215f60408301846137f1565b8183823760009101908152919050565b60208152600061215f60208301848661358d565b600080600080600060a08688031215613df457600080fd5b85518015158114613e0457600080fd5b602087015160408801516060890151608090990151929a91995097965090945092505050565b8385823760008482016000815283858237600093019283525090949350505050565b828482376000838201600081528351613e698183602088016137cd565b0195945050505050565b634e487b7160e01b600052601260045260246000fd5b600082613e9857613e98613e73565b500690565b818103818111156106d0576106d06139a4565b600082613ebf57613ebf613e73565b500490565b63ffffffff828116828216039080821115613ee157613ee16139a4565b5092915050565b803560208310156106d057600019602084900360031b1b1692915050565b63ffffffff818116838216019080821115613ee157613ee16139a4565b6001600160c81b03198135818116916007851015613f4b5780818660070360031b1b83161692505b505092915050565b6001600160f01b03198135818116916002851015613f4b5760029490940360031b84901b1690921692915050565b600081613f9057613f906139a4565b506000190190565b86815285602082015284604082015260008451613fbc8160608501602089016137cd565b845190830190613fd38160608401602089016137cd565b8451910190613fe98160608401602088016137cd565b0160600198975050505050505050565b60408152600061400c60408301856137f1565b90508260208301529392505050565b600181815b8085111561405657816000190482111561403c5761403c6139a4565b8085161561404957918102915b93841c9390800290614020565b509250929050565b60008261406d575060016106d0565b8161407a575060006106d0565b8160018114614090576002811461409a576140b6565b60019150506106d0565b60ff8411156140ab576140ab6139a4565b50506001821b6106d0565b5060208310610133831016604e8410600b84101617156140d9575081810a6106d0565b6140e3838361401b565b80600019048211156140f7576140f76139a4565b029392505050565b600061092a838361405e56fe4142434445464748494a4b4c4d4e4f505152535455565758595a6162636465666768696a6b6c6d6e6f707172737475767778797a303132333435363738392d5f360894a13ba1a3210667c828492db98dca3e2076cc3735a920a3ca505d382bbc416464726573733a206c6f772d6c6576656c2064656c65676174652063616c6c206661696c6564a26469706673582212200c98cb4b34ea7e02cd3e00481758d4b78da6de98fd423bb64ce8f8ed2a194b5664736f6c63430008140033",
    "linkReferences": {}
  },
  "methodIdentifiers": {
    "accountImplementation()": "11464fbe",
    "createAccount(uint256,address,bytes32,bytes32[],bytes32[],bytes[])": "1e378a3a",
    "getAddress(uint256,address,bytes32,bytes32[],bytes32[],bytes[])": "2fa17bde"
  },
  "id": 62
}